:020000040800F2
:1000000000280020C5060008510600085D0600080B
:1000100063060008690600086F060008000000007B
:10002000000000000000000000000000750600084D
:1000300081060008000000008D06000899060008EF
:100040000D0700080D0700080D0700080D07000840
:100050000D0700080D0700080D0700080D07000830
:100060000D0700080D0700080D0700080D07000820
:100070000D0700080D0700080D0700080D07000810
:100080000D0700080D0700080D0700080D07000800
:100090000D0700080D0700080D0700080D070008F0
:1000A0000D070008A50600080D0700080D07000849
:1000B0000D0700080D070008000000000D070008EC
:1000C0000D07000800000000000000000D070008F8
:1000D000000000000D0700080D07000800000000E8
:1000E0000D0700080D0700080D07000800000000BC
:1000F0000000000000000000000000000000000000
:0C01000000000000000000005FF808F1A3
:10010C0010B5054C237833B9044B13B10448AFF345
:10011C0000800123237010BD5C0000200000000053
:10012C00181D000808B5034B1BB103490348AFF376
:10013C00008008BD0000000060000020181D0008B1
:10014C0080B483B000AF00237B600EE00B487B686B
:10015C000B497A68DB000344D2000A4492E803009E
:10016C0083E803007B6801337B607B68062BEDDD45
:10017C0000BF0C37BD4680BC704700BF8C00002010
:10018C000C00002080B584B000AF0346FB71FB79F6
:10019C00092B29D8FB79164AD35CFB720023FB6030
:1001AC001EE0FA7AFB6842FA03F3DBB203F00103B8
:1001BC00BB72BB7A002B0CBF01230023DBB27B721A
:1001CC000C4AFB6852F833000A4AFB68DB00134404
:1001DC009B887A7A194600F079FDFB680133FB6045
:1001EC00FB68062BDDDD00E000BF1037BD4680BD8F
:1001FC00000000208C00002080B582B000AF786039
:10020C007B681A68154B1B689A4223D10122C021C6
:10021C00134800F05BFD2021114800F06FFD114BDD
:10022C001B78002B0BD10120FFF7ACFF00224021E3
:10023C000B4800F04BFD0B4B01221A700AE0022018
:10024C00FFF7A0FF00228021054800F03FFD054B81
:10025C0000221A7000BF0837BD4680BDD4000020B4
:10026C00000801407900002080B483B000AF7860B2
:10027C00074B1B687A6892FBF3F3064A1360064B34
:10028C0000221A6000BF0C37BD4680BC704700BF0F
:10029C004C0000207C0000208000002080B483B043
:1002AC0000AF786039607B68184A82FB03129210A9
:1002BC00DB17D31A164A13607968144B83FB01239E
:1002CC009A10CB17D21A13469B0013445B00CA1A20
:1002DC000F4B5A603B680D4A82FB03129210DB17DE
:1002EC00D31A0B4A93603968084B83FB01239A108D
:1002FC00CB17D21A13469B0013445B00CA1A044B4B
:10030C00DA6000BF0C37BD4680BC70476766666616
:10031C00C400002080B483B000AF7860074B1B682A
:10032C007A6892FBF3F3064A1360064B00221A60BC
:10033C0000BF0C37BD4680BC704700BF4C0000208E
:10034C00840000208800002080B500AF00F0DAF9AE
:10035C0000F038F800F0C2F800F070F8144801F022
:10036C0021F9FFF7EDFE134B1A68134B1B68194666
:10037C001046FFF793FF0A20FFF776FF4FF4FA7051
:10038C00FFF7C8FFC82000F01FFA0C4B1B785A1C53
:10039C000B4B83FB02139910D317C91A0B469B0006
:1003AC000B445B00D11ACAB2044B1A70EAE700BFC7
:1003BC00D4000020440000204800002078000020D9
:1003CC006766666680B590B000AF07F11803282207
:1003DC000021184601F092FC3B1D00221A605A6065
:1003EC009A60DA601A610223BB610123BB6210239D
:1003FC00FB6200237B6307F11803184600F098FC9E
:10040C000346002B01D000F0BFF80F237B600023C4
:10041C00BB600023FB6000233B6100237B613B1D21
:10042C000021184600F004FF0346002B01D000F019
:10043C00ABF800BF4037BD4680BD000080B586B02C
:10044C0000AF07F1080300221A605A609A60DA6064
:10045C003B4600221A605A601E4B1F4A1A601D4B05
:10046C0041F63F725A601B4B00229A60194B0922CD
:10047C00DA60184B00221A61164B00225A61154B98
:10048C0000229A61134801F03DF80346002B01D07D
:10049C0000F07AF84FF48053BB6007F1080319465B
:1004AC000C4801F0D3F90346002B01D000F06CF896
:1004BC0000233B6000237B603B461946054801F056
:1004CC008FFB0346002B01D000F05EF800BF1837FD
:1004DC00BD4680BDD4000020002C014080B586B004
:1004EC0000AF07F1080300221A605A609A60DA60C4
:1004FC00224B9B69214A43F0040393611F4B9B6978
:10050C0003F004037B607B681C4B9B691B4A43F024
:10051C0008039361194B9B6903F008033B603B682C
:10052C0000224FF6FE71164800F0D0FB00224FF669
:10053C00FF71144800F0CAFB4FF6FE73BB60012339
:10054C00FB6000233B6102237B6107F10803194622
:10055C000B4800F069FA4FF6FF73BB600123FB6098
:10056C0000233B6102237B6107F108031946054810
:10057C0000F05AFA00BF1837BD4680BD001002408B
:10058C0000080140000C014080B400AF00BFBD4624
:10059C0080BC704780B485B000AF154B9B69144A82
:1005AC0043F001039361124B9B6903F00103BB60A1
:1005BC00BB680F4BDB690E4A43F08053D3610C4B85
:1005CC00DB6903F080537B607B680A4B5B68FB60E4
:1005DC00FB6823F0E063FB60FB6843F08063FB6027
:1005EC00044AFB68536000BF1437BD4680BC70479B
:1005FC00001002400000014080B584B000AF78606C
:10060C007B681B680D4A934213D10D4B9B690C4AB6
:10061C0043F4006393610A4B9B6903F40063FB6032
:10062C00FB6800220221192000F0C7F9192000F004
:10063C00E0F900BF1037BD4680BD00BF002C014063
:10064C000010024080B400AF00BFBD4680BC7047B4
:10065C0080B400AFFEE780B400AFFEE780B400AF1B
:10066C00FEE780B400AFFEE780B400AF00BFBD462C
:10067C0080BC704780B400AF00BFBD4680BC7047E3
:10068C0080B400AF00BFBD4680BC704780B500AFE2
:10069C0000F07EF800BF80BD80B500AF024800F0CE
:1006AC00CDFF00BF80BD00BFD400002080B400AFE0
:1006BC0000BFBD4680BC70470C480D490D4A002355
:1006CC0002E0D458C4500433C4188C42F9D30A4AFB
:1006DC000A4C002301E013600432A242FBD3FFF763
:1006EC00E5FF01F0E7FAFFF72FFE7047000000204E
:1006FC005C0000205C1D00085C0000202001002034
:10070C00FEE7000080B500AF084B1B68074A43F0BA
:10071C0010031360032000F045F90F2000F008F8D7
:10072C00FFF738FF0023184680BD00BF00200240B1
:10073C0080B582B000AF7860124B1A68124B1B78F0
:10074C0019464FF47A73B3FBF1F3B2FBF3F318468B
:10075C0000F05DF90346002B01D001230EE07B680D
:10076C000F2B0AD8002279684FF0FF3000F025F9E2
:10077C00064A7B681360002300E001231846083703
:10078C00BD4680BD500000205800002054000020C1
:10079C0080B400AF054B1B781A46054B1B681344FD
:1007AC00034A136000BFBD4680BC70475800002050
:1007BC001C01002080B400AF024B1B681846BD46DC
:1007CC0080BC70471C01002080B584B000AF7860FD
:1007DC00FFF7F0FFB8607B68FB60FB68B3F1FF3F8D
:1007EC0005D0094B1B781A46FB681344FB6000BF0D
:1007FC00FFF7E0FF0246BB68D31AFA689A42F7D8B3
:10080C0000BF1037BD4680BD5800002080B485B0B5
:10081C0000AF78607B6803F00703FB600C4BDB6870
:10082C00BB60BA684FF6FF031340BB60FB681A024B
:10083C00BB68134343F0BF6343F40033BB60044A0B
:10084C00BB68D36000BF1437BD4680BC704700BF87
:10085C0000ED00E080B400AF044BDB681B0A03F032
:10086C0007031846BD4680BC704700BF00ED00E092
:10087C0080B483B000AF0346FB7197F90730002BAF
:10088C000BDBFB7903F01F02064997F907305B0974
:10089C00012000FA02F241F8232000BF0C37BD46BC
:1008AC0080BC704700E100E080B483B000AF034629
:1008BC003960FB7197F90730002B0ADB3B68DAB221
:1008CC000C4997F907301201D2B20B4483F800237C
:1008DC000AE03B68DAB20849FB7903F00F03043BEA
:1008EC001201D2B20B441A7600BF0C37BD4680BC45
:1008FC00704700BF00E100E000ED00E080B489B07B
:10090C0000AFF860B9607A60FB6803F00703FB6125
:10091C00FB69C3F10703042B28BF0423BB61FB69EC
:10092C000433062B02D9FB69033B00E000237B61F7
:10093C004FF0FF32BB6902FA03F3DA43BB681A408B
:10094C007B699A404FF0FF317B6901FA03F3D9437D
:10095C007B680B40134318462437BD4680BC704758
:10096C0080B582B000AF78607B68013BB3F1807FCB
:10097C0001D301230FE00A4A7B68013B53600F212E
:10098C004FF0FF30FFF790FF054B00229A60044BAD
:10099C0007221A60002318460837BD4680BD00BFE9
:1009AC0010E000E080B582B000AF78607868FFF7A7
:1009BC002DFF00BF0837BD4680BD80B586B000AFA7
:1009CC000346B9607A60FB7300237B61FFF742FF3B
:1009DC0078617A68B9687869FFF790FF024697F9F1
:1009EC000F3011461846FFF75FFF00BF1837BD46A2
:1009FC0080BD80B582B000AF0346FB7197F907301C
:100A0C001846FFF735FF00BF0837BD4680BD80B5DF
:100A1C0082B000AF78607868FFF7A2FF03461846F3
:100A2C000837BD4680BD000080B48BB000AF786045
:100A3C00396000237B6200233B6221E101227B6A47
:100A4C0002FA03F3FB613B681B68FA691340BB6154
:100A5C00BA69FB699A4240F010813B685B68122BC3
:100A6C0034D0122B0DD8022B2BD0022B04D8002BF8
:100A7C0031D0012B1CD048E0032B43D0112B1BD0C1
:100A8C0043E0864A934226D0844A934206D8844A4D
:100A9C00934220D0834A93421DD036E0824A93423F
:100AAC0019D0824A934216D0814A934213D02CE03B
:100ABC003B68DB683B6228E03B68DB6804333B62E5
:100ACC0023E03B68DB6808333B621EE03B68DB6875
:100ADC000C333B6219E03B689B68002B02D104236A
:100AEC003B6212E03B689B68012B05D108233B62FB
:100AFC007B68FA691A6108E008233B627B68FA6933
:100B0C005A6102E000233B6200BFBB69FF2B01D896
:100B1C007B6801E07B6804337B61BB69FF2B02D8E7
:100B2C007B6A9B0002E07B6A083B9B003B617B6914
:100B3C001A680F213B6901FA03F3DB431A40396A47
:100B4C003B6901FA03F31A437B691A603B685B68E3
:100B5C0003F08053002B00F09080564B9B69554A54
:100B6C0043F001039361534B9B6903F00103BB609A
:100B7C00BB68514A7B6A9B08023352F82330FB60F6
:100B8C007B6A03F003039B000F2202FA03F3DB439F
:100B9C00FA681340FB607B68484A93420DD07B682F
:100BAC00474A934207D07B68464A934201D10223BD
:100BBC0004E0032302E0012300E000237A6A02F040
:100BCC00030292009340FA681343FB603A497B6A34
:100BDC009B080233FA6841F823203B685B6803F4F6
:100BEC008033002B06D0384B1A683749BB69134346
:100BFC000B6006E0344B1A68BB69DB433249134087
:100C0C000B603B685B6803F40033002B06D02E4B63
:100C1C005A682D49BB6913434B6006E02A4B5A684E
:100C2C00BB69DB43284913404B603B685B6803F4AA
:100C3C008013002B06D0244B9A682349BB691343BD
:100C4C008B6006E0204B9A68BB69DB431E4913405E
:100C5C008B603B685B6803F40013002B06D01A4BC7
:100C6C00DA681949BB691343CB6006E0164BDA68A6
:100C7C00BB69DB4314491340CB607B6A01337B6255
:100C8C003B681A687B6A22FA03F3002B7FF4D6AE1A
:100C9C0000BF2C37BD4680BC704700BF0000211040
:100CAC000000111000001210000031100000321072
:100CBC00000022100010024000000140000801401A
:100CCC00000C0140001001400004014080B483B0CE
:100CDC0000AF78600B467B8013467B707B78002BD3
:100CEC0003D07A887B681A6103E07B881A047B68DE
:100CFC001A6100BF0C37BD4680BC704780B485B00C
:100D0C0000AF78600B467B807B68DB68FB607A8881
:100D1C00FB6813401A04FB68D9437B880B401A43C9
:100D2C007B681A6100BF1437BD4680BC7047000059
:100D3C0080B586B000AF78607B68002B01D10123B1
:100D4C006CE27B681B6803F00103002B00F08780CA
:100D5C00924B5B6803F00C03042B0CD08F4B5B683D
:100D6C0003F00C03082B12D18C4B5B6803F480331B
:100D7C00B3F5803F0BD1894B1B6803F40033002B78
:100D8C006CD07B685B68002B68D1012346E27B68E2
:100D9C005B68B3F5803F06D1804B1B687F4A43F4F8
:100DAC00803313602EE07B685B68002B0CD17B4B8F
:100DBC001B687A4A23F480331360784B1B68774A9C
:100DCC0023F4802313601DE07B685B68B3F5A02FD0
:100DDC000CD1724B1B68714A43F4802313606F4B28
:100DEC001B686E4A43F4803313600BE06B4B1B683B
:100DFC006A4A23F480331360684B1B68674A23F4F8
:100E0C00802313607B685B68002B13D0FFF7D2FC48
:100E1C00386108E0FFF7CEFC02463B69D31A642B1D
:100E2C0001D90323FAE15D4B1B6803F40033002B5B
:100E3C00F0D014E0FFF7BEFC386108E0FFF7BAFC15
:100E4C0002463B69D31A642B01D90323E6E1534BC9
:100E5C001B6803F40033002BF0D100E000BF7B686B
:100E6C001B6803F00203002B63D04C4B5B6803F050
:100E7C000C03002B0BD0494B5B6803F00C03082BC5
:100E8C001CD1464B5B6803F48033002B16D1434BCB
:100E9C001B6803F00203002B05D07B681B69012B38
:100EAC0001D00123BAE13D4B1B6823F0F8027B68AB
:100EBC005B69DB00394913430B603AE07B681B69C3
:100ECC00002B20D0364B01221A60FFF773FC3861DF
:100EDC0008E0FFF76FFC02463B69D31A022B01D9DD
:100EEC0003239BE12D4B1B6803F00203002BF0D076
:100EFC002A4B1B6823F0F8027B685B69DB002749EF
:100F0C0013430B6015E0264B00221A60FFF752FCCE
:100F1C00386108E0FFF74EFC02463B69D31A022BFE
:100F2C0001D903237AE11D4B1B6803F00203002B4C
:100F3C00F0D17B681B6803F00803002B3AD07B6868
:100F4C009B69002B19D0174B01221A60FFF732FC5A
:100F5C00386108E0FFF72EFC02463B69D31A022BDE
:100F6C0001D903235AE10D4B5B6A03F00203002BFA
:100F7C00F0D0012000F0A8FA1CE00A4B00221A6005
:100F8C00FFF718FC38610FE0FFF714FC02463B69D1
:100F9C00D31A022B08D9032340E100BF00100240F2
:100FAC0000004242800442429E4B5B6A03F0020303
:100FBC00002BE9D17B681B6803F00403002B00F0C5
:100FCC00A6800023FB75974BDB6903F08053002B45
:100FDC000DD1944BDB69934A43F08053D361914B11
:100FEC00DB6903F08053BB60BB680123FB758E4B40
:100FFC001B6803F48073002B18D18B4B1B688A4A37
:10100C0043F480731360FFF7D5FB386108E0FFF7FA
:10101C00D1FB02463B69D31A642B01D90323FDE0B3
:10102C00814B1B6803F48073002BF0D07B68DB686A
:10103C00012B06D17B4B1B6A7A4A43F001031362E6
:10104C002DE07B68DB68002B0CD1764B1B6A754A54
:10105C0023F001031362734B1B6A724A23F00403DF
:10106C0013621CE07B68DB68052B0CD16D4B1B6A93
:10107C006C4A43F0040313626A4B1B6A694A43F0DF
:10108C00010313620BE0674B1B6A664A23F00103F2
:10109C001362644B1B6A634A23F0040313627B687C
:1010AC00DB68002B15D0FFF785FB38610AE0FFF7F2
:1010BC0081FB02463B69D31A41F28832934201D933
:1010CC000323ABE0574B1B6A03F00203002BEED05B
:1010DC0014E0FFF76FFB38610AE0FFF76BFB024689
:1010EC003B69D31A41F28832934201D9032395E02C
:1010FC004C4B1B6A03F00203002BEED1FB7D012B42
:10110C0005D1484BDB69474A23F08053D3617B6898
:10111C00DB69002B00F08180424B5B6803F00C0311
:10112C00082B61D07B68DB69022B46D13F4B002238
:10113C001A60FFF73FFB386108E0FFF73BFB024604
:10114C003B69D31A022B01D9032367E0354B1B688B
:10115C0003F00073002BF0D17B681B6AB3F5803F62
:10116C0008D1304B5B6823F400327B689B682D49B7
:10117C0013434B602B4B5B6823F474127B68196A26
:10118C007B685B6A0B43274913434B60274B012257
:10119C001A60FFF70FFB386108E0FFF70BFB024604
:1011AC003B69D31A022B01D9032337E01D4B1B6873
:1011BC0003F00073002BF0D02FE01C4B00221A60C0
:1011CC00FFF7F8FA386108E0FFF7F4FA02463B69DA
:1011DC00D31A022B01D9032320E0124B1B6803F016
:1011EC000073002BF0D118E07B68DB69012B01D177
:1011FC00012313E00B4B5B68FB60FB6803F480324C
:10120C007B681B6A9A4206D1FB6803F470127B68F8
:10121C005B6A9A4201D0012300E00023184618377C
:10122C00BD4680BD0010024000700040600042428C
:10123C0080B584B000AF786039607B68002B01D139
:10124C000123D0E06A4B1B6803F007033A689A420B
:10125C0010D9674B1B6823F0070265493B681343A1
:10126C000B60634B1B6803F007033A689A4201D08A
:10127C000123B8E07B681B6803F00203002B20D02D
:10128C007B681B6803F00403002B05D0594B5B688B
:10129C00584A43F4E06353607B681B6803F008030F
:1012AC00002B05D0534B5B68524A43F46053536098
:1012BC00504B5B6823F0F0027B689B684D491343ED
:1012CC004B607B681B6803F00103002B40D07B68EC
:1012DC005B68012B07D1474B1B6803F40033002BD1
:1012EC0015D101237FE07B685B68022B07D1414B52
:1012FC001B6803F00073002B09D1012373E03D4BF5
:10130C001B6803F00203002B01D101236BE0394B66
:10131C005B6823F003027B685B68364913434B60C0
:10132C00FFF748FAF8600AE0FFF744FA0246FB6858
:10133C00D31A41F28832934201D9032353E02D4B47
:10134C005B6803F00C027B685B689B009A42EBD1F4
:10135C00274B1B6803F007033A689A4210D2244BC0
:10136C001B6823F0070222493B6813430B60204B98
:10137C001B6803F007033A689A4201D0012332E05C
:10138C007B681B6803F00403002B08D0194B5B68C7
:10139C0023F4E0627B68DB68164913434B607B687F
:1013AC001B6803F00803002B09D0124B5B6823F475
:1013BC0060527B681B69DB000E4913434B6000F0E5
:1013CC0021F801460B4B5B681B0903F00F030A4A1B
:1013DC00D35C21FA03F3094A1360094B1B681846C6
:1013EC00FFF7A6F9002318461037BD4680BD00BF95
:1013FC000020024000100240441D00085000002054
:10140C005400002090B48AB000AF2A4B3C1D0FCB87
:10141C0084E80F00284B1B883B800023FB610023D2
:10142C00BB6100237B6200237B6100233B62234B67
:10143C005B68FB61FB6903F00C03042B02D0082BE7
:10144C0003D02DE01E4B3B622DE0FB699B0C03F09F
:10145C000F0307F12802134413F8243C7B61FB694A
:10146C0003F48033002B13D0144B5B685B0C03F03C
:10147C00010307F12802134413F8283CBB617B6974
:10148C000F4A02FB03F2BB69B2FBF3F37B6204E08D
:10149C007B690C4A02FB03F37B627B6A3B6202E0D2
:1014AC00074B3B6200BF3B6A18462837BD4690BCD1
:1014BC00704700BF301D0008401D0008001002409E
:1014CC0000127A0000093D0080B485B000AF78604E
:1014DC000A4B1B680A4AA2FB03235B0A7A6802FBCD
:1014EC0003F3FB6000BFFB685A1EFA60002BF9D1B6
:1014FC0000BF1437BD4680BC704700BF50000020B1
:10150C00D34D621080B582B000AF78607B68002B41
:10151C0001D1012341E07B6893F83D30DBB2002B15
:10152C0006D17B68002283F83C207868FFF764F8CA
:10153C007B68022283F83D207B681A687B68043341
:10154C001946104600F05EFA7B68012283F84620AB
:10155C007B68012283F83E207B68012283F83F20C0
:10156C007B68012283F840207B68012283F84120AC
:10157C007B68012283F842207B68012283F8432098
:10158C007B68012283F844207B68012283F8452084
:10159C007B68012283F83D20002318460837BD469E
:1015AC0080BD000080B485B000AF78607B6893F894
:1015BC003D30DBB2012B01D0012335E07B680222E8
:1015CC0083F83D207B681B68DA687B681B6842F0F7
:1015DC000102DA607B681B68164A934209D07B686B
:1015EC001B68B3F1804F04D07B681B68124A93428E
:1015FC0011D17B681B689B6803F00703FB60FB68D9
:10160C00062B10D07B681B681A687B681B6842F03D
:10161C0001021A6007E07B681B681A687B681B680C
:10162C0042F001021A60002318461437BD4680BCF4
:10163C00704700BF002C01400004004080B582B010
:10164C0000AF78607B681B681B6903F00203022BF8
:10165C0022D17B681B68DB6803F00203022B1BD1D1
:10166C007B681B686FF002021A617B6801221A7793
:10167C007B681B689B6903F00303002B03D078681D
:10168C0000F0A4F905E0786800F097F9786800F0AC
:10169C00A6F97B6800221A777B681B681B6903F02C
:1016AC000403042B22D17B681B68DB6803F0040362
:1016BC00042B1BD17B681B686FF004021A617B68DA
:1016CC0002221A777B681B689B6903F44073002B1A
:1016DC0003D0786800F07AF905E0786800F06DF9CD
:1016EC00786800F07CF97B6800221A777B681B68AD
:1016FC001B6903F00803082B22D17B681B68DB688D
:10170C0003F00803082B1BD17B681B686FF00802E1
:10171C001A617B6804221A777B681B68DB6903F00B
:10172C000303002B03D0786800F050F905E07868CB
:10173C0000F043F9786800F052F97B6800221A77C0
:10174C007B681B681B6903F01003102B22D17B688C
:10175C001B68DB6803F01003102B1BD17B681B6824
:10176C006FF010021A617B6808221A777B681B687D
:10177C00DB6903F44073002B03D0786800F026F982
:10178C0005E0786800F019F9786800F028F97B68B2
:10179C0000221A777B681B681B6903F00103012B7D
:1017AC000ED17B681B68DB6803F00103012B07D1AA
:1017BC007B681B686FF001021A617868FEF71CFDEC
:1017CC007B681B681B6903F08003802B0ED17B6840
:1017DC001B68DB6803F08003802B07D17B681B68D8
:1017EC006FF080021A61786800F05BFA7B681B6806
:1017FC001B6903F04003402B0ED17B681B68DB6830
:10180C0003F04003402B07D17B681B686FF040024C
:10181C001A61786800F0ECF87B681B681B6903F0B0
:10182C002003202B0ED17B681B68DB6803F02003A0
:10183C00202B07D17B681B686FF020021A61786837
:10184C0000F026FA00BF0837BD4680BD80B584B0D5
:10185C0000AF786039607B6893F83C30012B01D184
:10186C000223A6E07B68012283F83C207B680222DD
:10187C0083F83D207B681B689B68FB60FB6823F04A
:10188C007703FB60FB6823F47F43FB607B681B687A
:10189C00FA689A603B681B68402B67D0402B0BD8CA
:1018AC00102B73D0102B02D8002B6FD078E0202B8C
:1018BC006CD0302B6AD073E0702B0DD0702B04D809
:1018CC00502B33D0602B41D06AE0B3F5805F66D0EB
:1018DC00B3F5005F17D063E07B6818683B689968C4
:1018EC003B685A683B68DB6800F05BF97B681B68F7
:1018FC009B68FB60FB6843F07703FB607B681B68AD
:10190C00FA689A604CE07B6818683B6899683B6899
:10191C005A683B68DB6800F044F97B681B689A687E
:10192C007B681B6842F480429A6039E07B681868D7
:10193C003B6859683B68DB681A4600F0BBF87B686B
:10194C001B685021184600F012F929E07B681868D2
:10195C003B6859683B68DB681A4600F0D9F87B682D
:10196C001B686021184600F002F919E07B681868C2
:10197C003B6859683B68DB681A4600F09BF87B684B
:10198C001B684021184600F0F2F809E07B681A68E1
:10199C003B681B681946104600F0E9F800E000BFF0
:1019AC007B68012283F83D207B68002283F83C2071
:1019BC00002318461037BD4680BD80B483B000AFFD
:1019CC00786000BF0C37BD4680BC704780B483B0D4
:1019DC0000AF786000BF0C37BD4680BC704780B448
:1019EC0083B000AF786000BF0C37BD4680BC704739
:1019FC0080B483B000AF786000BF0C37BD4680BCAC
:101A0C007047000080B485B000AF786039607B68A7
:101A1C001B68FB607B68254A934207D07B68B3F157
:101A2C00804F03D07B68224A934208D1FB6823F095
:101A3C007003FB603B685B68FA681343FB607B6870
:101A4C001A4A934207D07B68B3F1804F03D07B686E
:101A5C00174A934208D1FB6823F44073FB603B6840
:101A6C00DB68FA681343FB60FB6823F080023B6879
:101A7C005B691343FB607B68FA681A603B689A6881
:101A8C007B68DA623B681A687B689A627B68074AF3
:101A9C00934203D13B681A697B681A637B68012205
:101AAC005A6100BF1437BD4680BC7047002C014002
:101ABC000004004080B487B000AFF860B9607A6071
:101ACC00FB681B6A7B61FB681B6A23F00102FB68E5
:101ADC001A62FB689B693B613B6923F0F0033B6135
:101AEC007B681B013A6913433B617B6923F00A0352
:101AFC007B617A69BB6813437B61FB683A699A61C5
:101B0C00FB687A691A6200BF1C37BD4680BC7047FF
:101B1C0080B487B000AFF860B9607A60FB681B6A6C
:101B2C0023F01002FB681A62FB689B697B61FB68FF
:101B3C001B6A3B617B6923F470437B617B681B03ED
:101B4C007A6913437B613B6923F0A0033B61BB685B
:101B5C001B013A6913433B61FB687A699A61FB6824
:101B6C003A691A6200BF1C37BD4680BC704780B40E
:101B7C0085B000AF786039607B689B68FB60FB6860
:101B8C0023F07003FB603A68FB68134343F00703D0
:101B9C00FB607B68FA689A6000BF1437BD4680BC56
:101BAC00704780B487B000AFF860B9607A603B6072
:101BBC00FB689B687B617B6923F47F437B613B689B
:101BCC001A027B681A43BB6813437A6913437B611F
:101BDC00FB687A699A6000BF1C37BD4680BC7047B1
:101BEC0080B485B000AF786039607B6893F83C3086
:101BFC00012B01D1022341E07B68012283F83C20B8
:101C0C007B68022283F83D207B681B685B68FB6065
:101C1C007B681B689B68BB60FB6823F07003FB60F0
:101C2C003B681B68FA681343FB607B681B68FA68A7
:101C3C005A607B681B68144A934209D07B681B6806
:101C4C00B3F1804F04D07B681B68104A93420CD1CF
:101C5C00BB6823F08003BB603B685B68BA681343C6
:101C6C00BB607B681B68BA689A607B68012283F84A
:101C7C003D207B68002283F83C2000231846143753
:101C8C00BD4680BC704700BF002C014000040040E2
:101C9C0080B483B000AF786000BF0C37BD4680BC09
:101CAC00704780B483B000AF786000BF0C37BD467E
:101CBC0080BC704770B500250C4E0D4CA41BA410B5
:101CCC00A54209D100F022F800250A4E0A4CA41BAB
:101CDC00A410A54205D170BD56F8253098470135A2
:101CEC00EEE756F8253098470135F2E7541D000809
:101CFC00541D0008541D0008581D000803460244DA
:101D0C00934200D1704703F8011BF9E7F8B500BF07
:101D1C00F8BC08BC9E467047F8B500BFF8BC08BCC0
:041D2C009E46704718
:101D300002030405060708090A0B0C0D0E0F10100C
:101D40000102000000000000000000000102030486
:041D50000607080971
:041D54003101000851
:041D58000D01000871
:101D5C003F065B4F666D7D077F6F0000000C0140F6
:101D6C0001000000000C014002000000000C0140CA
:101D7C0004000000000C014008000000000C0140B1
:101D8C0010000000000C014020000000000C01407D
:101D9C00400000000F0000000A0000000A000000D4
:0C1DAC000024F400100000000100000002
:04000005080006C524
:00000001FF
